:100000000C9462000C948A000C948A000C948A0070
:100010000C948A000C948A000C948A000C948A0038
:100020000C948A000C948A000C948A000C948A0028
:100030000C948A000C948A000C948A000C948A0018
:100040000C94BE010C948A000C942E020C940802AD
:100050000C948A000C948A000C948A000C948A00F8
:100060000C948A000C948A000000000025002800EF
:100070002B0000000000240027002A0000000000E0
:1000800023002600290004040404040404040202DA
:100090000202020203030303030301020408102007
:1000A0004080010204081020010204081020000012
:1000B0000008000201000003040700000000000027
:1000C0000000600211241FBECFEFD8E0DEBFCDBF1D
:1000D00011E0A0E0B1E0E8E4F8E002C005900D9284
:1000E000AA32B107D9F721E0AAE2B1E001C01D921E
:1000F000AD3DB207E1F710E0C2E6D0E004C02197C1
:10010000FE010E941C04C136D107C9F70E94A20259
:100110000C9422040C9400003FB7F89480912F01B6
:1001200090913001A0913101B091320126B5A89B88
:1001300005C02F3F19F00196A11DB11D3FBFBA2F79
:10014000A92F982F8827BC01CD01620F711D811D39
:10015000911D42E0660F771F881F991F4A95D1F7BE
:100160000895AF92BF92CF92DF92EF92FF920F93DA
:100170001F93CF93DF936C017B018B01040F151F3D
:10018000EB015E01AE18BF08C017D10759F06991A5
:10019000D601ED91FC910190F081E02DC601099509
:1001A000892B79F7C501DF91CF911F910F91FF90B6
:1001B000EF90DF90CF90BF90AF900895FC01538DEA
:1001C000448D252F30E0842F90E0821B930B541731
:1001D00010F0CF96089501970895FC01918D828DBE
:1001E000981761F0A28DAE0FBF2FB11D5D968C9157
:1001F000928D9F5F9F73928F90E008958FEF9FEF96
:100200000895FC01918D828D981731F0828DE80F51
:10021000F11D858D90E008958FEF9FEF0895FC010B
:10022000918D228D892F90E0805C9F4F821B9109D8
:100230008F739927089583E391E00E940F0121E0D5
:10024000892B09F420E0822F089580E090E0892B2B
:1002500029F00E941B0181110C9400000895FC01FB
:10026000A48DA80FB92FB11DA35ABF4F2C91848D17
:1002700090E001968F739927848FA689B7892C9374
:10028000A089B1898C91837080648C93938D848DC7
:10029000981306C00288F389E02D80818F7D8083CA
:1002A0000895EF92FF920F931F93CF93DF93EC018A
:1002B00081E0888F9B8D8C8D98131AC0E889F9890D
:1002C000808185FF15C09FB7F894EE89FF89608310
:1002D000E889F98980818370806480839FBF81E091
:1002E00090E0DF91CF911F910F91FF90EF900895D3
:1002F000F62E0B8D10E00F5F1F4F0F731127E02EAE
:100300008C8D8E110CC00FB607FCFACFE889F989E5
:10031000808185FFF5CFCE010E942F01F1CFEB8DBB
:10032000EC0FFD2FF11DE35AFF4FF0829FB7F894B9
:100330000B8FEA89FB8980818062CFCFCF93DF93D7
:10034000EC01888D8823B9F0AA89BB89E889F989ED
:100350008C9185FD03C0808186FD0DC00FB607FC22
:10036000F7CF8C9185FFF2CF808185FFEDCFCE0155
:100370000E942F01E9CFDF91CF9108951F920F9234
:100380000FB60F9211242F933F938F939F93AF93A8
:10039000BF9380912B0190912C01A0912D01B091E0
:1003A0002E0130912A0123E0230F2D3758F50196B5
:1003B000A11DB11D20932A0180932B0190932C0144
:1003C000A0932D01B0932E0180912F0190913001C7
:1003D000A0913101B09132010196A11DB11D809310
:1003E0002F0190933001A0933101B0933201BF915E
:1003F000AF919F918F913F912F910F900FBE0F90D2
:100400001F90189526E8230F0296A11DB11DD2CF8B
:100410001F920F920FB60F9211242F933F934F9379
:100420005F936F937F938F939F93AF93BF93EF935C
:10043000FF9383E391E00E942F01FF91EF91BF9121
:10044000AF919F918F917F916F915F914F913F916C
:100450002F910F900FBE0F901F9018951F920F9223
:100460000FB60F9211242F938F939F93EF93FF93C7
:10047000E0914301F09144018081E0914901F091C4
:100480004A0182FD1BC0908180914C018F5F8F7368
:1004900020914D01821741F0E0914C01F0E0ED5CBC
:1004A000FE4F958F80934C01FF91EF919F918F911B
:1004B0002F910F900FBE0F901F9018958081F4CF51
:1004C000E3E3F1E01382128288EE93E0A0E0B0E073
:1004D00084839583A683B78384E091E091838083AE
:1004E00085EC90E09587848784EC90E097878687F9
:1004F00080EC90E0918B808B81EC90E0938B828BF1
:1005000082EC90E0958B848B86EC90E0978B868BC9
:10051000118E128E138E148EE0EDF1E01082128295
:10052000118282E090E09683858383E090E090875B
:10053000878384E090E09287818785E090E09487CC
:1005400083870895CF93DF9300D000D000D0CDB73C
:10055000DEB7789484B5826084BD84B5816084BD43
:1005600085B5826085BD85B5816085BD80916E0051
:10057000816080936E001092810080918100826082
:1005800080938100809181008160809381008091BF
:1005900080008160809380008091B10084608093AE
:1005A000B1008091B00081608093B00080917A00AA
:1005B000846080937A0080917A00826080937A00D0
:1005C00080917A00816080937A0080917A008068BF
:1005D00080937A001092C100E0914301F0914401B0
:1005E00082E08083E0913F01F09140011082E09130
:1005F0004101F09142018FEC808310924B01E09118
:100600004701F091480186E08083E0914501F09137
:100610004601808180618083E0914501F09146012F
:10062000808188608083E0914501F091460180815E
:1006300080688083E0914501F091460180818F7D43
:1006400080838091D5019091D6019A83898380918E
:10065000D7019091D8019C838B838091D90190918F
:10066000DA019E838D83DE0111969E01295F3F4F43
:100670008D919D919927FC01E656FF4F64918A5711
:100680009F4FFC0184918823A1F090E0880F991F6F
:10069000FC01EE58FF4F45915491FC01E859FF4F82
:1006A000859194918FB7F894FA019081962B90835D
:1006B0008FBF2A173B07E1F68091DB019091DC01A7
:1006C0009927FC01E656FF4F24918A579F4FFC0162
:1006D00084918823C9F090E0880F991FFC01EE589F
:1006E000FF4F45915491FC01E859FF4FA591B491FA
:1006F0009FB7F894FA0180812095822380838C91A2
:10070000E22FE823EC939FBF43E150E062E171E008
:1007100083E391E00E94B10042E050E066E271E0C4
:1007200083E391E00E94B10000E010E0FF24F39425
:100730008091DB019091DC019927FC01E255FF4F8C
:100740002491FC01E656FF4F3491FC01EA57FF4F1C
:10075000E491EE2309F445C0222339F0233051F10E
:10076000F8F4213069F1223079F1F0E0EE0FFF1F4B
:10077000E458FF4FA591B491EC913E2391F1809103
:10078000D001811102C0F092D0010115110581F252
:100790000E941B01882309F4CBCF0E940000C8CF20
:1007A0002730A9F02830C9F02430F9F68091800074
:1007B0008F7D03C0809180008F7780938000D5CF9C
:1007C00084B58F7784BDD1CF84B58F7DFBCF8091E9
:1007D000B0008F778093B000C8CF8091B0008F7D3C
:1007E000F9CF8091D001882381F21092D0010E942C
:1007F0008C002B013C018AE0882E912CA12CB12C7D
:100800000E948C006419750986099709683E734037
:1008100081059105A8F3F1E08F1A9108A108B108AC
:1008200028EE420E23E0521E611C711C81149104BB
:10083000A104B10429F7A9CFEE0FFF1F0590F49191
:08084000E02D0994F894FFCFAC
:10084800000000005101B100DE009E010F01ED0023
:1008580001012D2D534554555020434F4D504C45C3
:0A0868005445322D2D000D0A00004A
:00000001FF
