:100000000C9462000C948A000C948A000C948A0070
:100010000C948A000C948A000C948A000C948A0038
:100020000C948A000C948A000C948A000C948A0028
:100030000C948A000C948A000C948A000C948A0018
:100040000C9490020C948A000C9400030C94DA0235
:100050000C948A000C948A000C948A000C948A00F8
:100060000C948A000C948A000000000023002600F3
:10007000290000000000240027002A0000000000E2
:10008000250028002B0004040404040404040202D4
:100090000202020203030303030301020408102007
:1000A0004080010204081020010204081020000012
:1000B0000008000201000003040700000000000027
:1000C0000000C50411241FBECFEFD8E0DEBFCDBFB6
:1000D00011E0A0E0B1E0E4EFF9E002C005900D927C
:1000E000A032B107D9F721E0A0E2B1E001C01D9232
:1000F000A93CB207E1F710E0C2E6D0E004C02197C6
:10010000FE010E94F204C136D107C9F70E943203F2
:100110000C94F8040C940000833081F028F48130B2
:1001200099F08230A9F008958730A9F08830C9F09D
:100130008430B1F4809180008F7D03C08091800075
:100140008F7780938000089584B58F7784BD08955C
:1001500084B58F7DFBCF8091B0008F778093B00006
:1001600008958091B0008F7DF9CF1F93CF93DF93D7
:10017000282F30E0F901E255FF4F8491F901E6564E
:10018000FF4FD491F901EA57FF4FC491CC23A9F056
:10019000162F81110E948C00EC2FF0E0EE0FFF1F54
:1001A000E458FF4FA591B4918FB7F894EC911111D9
:1001B00008C0D095DE23DC938FBFDF91CF911F91D4
:1001C0000895DE2BF8CFCF93DF9390E0FC01E65645
:1001D000FF4F24918A579F4FFC0184918823D1F0CF
:1001E00090E0880F991FFC01EE58FF4FA591B49144
:1001F000FC01E458FF4FC591D49161110EC09FB727
:10020000F8948C91E22FE0958E238C932881E22341
:10021000E8839FBFDF91CF9108958FB7F894EC9159
:10022000E22BEC938FBFF6CF3FB7F8948091C501D6
:100230009091C601A091C701B091C80126B5A89BB5
:1002400005C02F3F19F00196A11DB11D3FBFBA2F68
:10025000A92F982F8827BC01CD01620F711D811D28
:10026000911D42E0660F771F881F991F4A95D1F7AD
:1002700008958F929F92AF92BF92CF92DF92EF92AA
:10028000FF924B015C010E9414016B017C010E94F2
:1002900014016C197D098E099F09683E7340810520
:1002A0009105A8F321E0821A9108A108B10888EE0F
:1002B000C80E83E0D81EE11CF11C81149104A10436
:1002C000B10429F7FF90EF90DF90CF90BF90AF90EF
:1002D0009F908F900895AF92BF92CF92DF92EF924E
:1002E000FF920F931F93CF93DF936C017B018B01E0
:1002F000040F151FEB015E01AE18BF08C017D10730
:1003000059F06991D601ED91FC910190F081E02DB9
:10031000C6010995892B79F7C501DF91CF911F910E
:100320000F91FF90EF90DF90CF90BF90AF90089526
:10033000FC01538D448D252F30E0842F90E0821BEB
:10034000930B541710F0CF96089501970895FC0170
:10035000918D828D981761F0A28DAE0FBF2FB11DC8
:100360005D968C91928D9F5F9F73928F90E0089520
:100370008FEF9FEF0895FC01918D828D981731F0DA
:10038000828DE80FF11D858D90E008958FEF9FEF2E
:100390000895FC01918D228D892F90E0805C9F4F04
:1003A000821B91098F739927089580E291E00E9442
:1003B000C90121E0892B09F420E0822F089580E013
:1003C00090E0892B29F00E94D50181110C94000046
:1003D0000895FC01A48DA80FB92FB11DA35ABF4FDA
:1003E0002C91848D90E001968F739927848FA68934
:1003F000B7892C93A089B1898C91837080648C9388
:10040000938D848D981306C00288F389E02D808136
:100410008F7D80830895EF92FF920F931F93CF9368
:10042000DF93EC0181E0888F9B8D8C8D98131AC02F
:10043000E889F989808185FF15C09FB7F894EE8916
:10044000FF896083E889F989808183708064808373
:100450009FBF81E090E0DF91CF911F910F91FF90BE
:10046000EF900895F62E0B8D10E00F5F1F4F0F7366
:100470001127E02E8C8D8E110CC00FB607FCFACF21
:10048000E889F989808185FFF5CFCE010E94E901D5
:10049000F1CFEB8DEC0FFD2FF11DE35AFF4FF082F2
:1004A0009FB7F8940B8FEA89FB8980818062CFCF58
:1004B000CF93DF93EC01888D8823B9F0AA89BB899B
:1004C000E889F9898C9185FD03C0808186FD0DC086
:1004D0000FB607FCF7CF8C9185FFF2CF808185FFA7
:1004E000EDCFCE010E94E901E9CFDF91CF910895D0
:1004F00060E089E00E94B50060E08AE00E94B500FB
:1005000060E08BE00C94B50061E089E00E94B500EA
:1005100061E08AE00E94B50061E08BE00C94B500D8
:100520001F920F920FB60F9211242F933F938F9328
:100530009F93AF93BF938091C1019091C201A0910D
:10054000C301B091C4013091C00123E0230F2D37C6
:1005500058F50196A11DB11D2093C0018093C101E2
:100560009093C201A093C301B093C4018091C501CF
:100570009091C601A091C701B091C8010196A11D3B
:10058000B11D8093C5019093C601A093C701B0939C
:10059000C801BF91AF919F918F913F912F910F9083
:1005A0000FBE0F901F90189526E8230F0296A11DED
:1005B000B11DD2CF1F920F920FB60F9211242F931D
:1005C0003F934F935F936F937F938F939F93AF93DB
:1005D000BF93EF93FF9380E291E00E94E901FF91C6
:1005E000EF91BF91AF919F918F917F916F915F91AB
:1005F0004F913F912F910F900FBE0F901F90189524
:100600001F920F920FB60F9211242F938F939F93E7
:10061000EF93FF93E0913001F09131018081E091FF
:100620003601F091370182FD1BC090818091390124
:100630008F5F8F7320913A01821741F0E091390169
:10064000F0E0E05EFE4F958F80933901FF91EF91CE
:100650009F918F912F910F900FBE0F901F90189523
:100660008081F4CF789484B5826084BD84B5816044
:1006700084BD85B5826085BD85B5816085BD80916D
:100680006E00816080936E001092810080918100E5
:1006900082608093810080918100816080938100DD
:1006A000809180008160809380008091B10084609F
:1006B0008093B1008091B00081608093B000809100
:1006C0007A00846080937A0080917A0082608093BF
:1006D0007A0080917A00816080937A0080917A001C
:1006E000806880937A001092C100E0913001F0910F
:1006F000310182E08083E0912C01F0912D01108284
:10070000E0912E01F0912F018FEC8083109238013F
:10071000E0913401F091350186E08083E09132016F
:10072000F0913301808180618083E0913201F0910A
:100730003301808188608083E0913201F091330140
:10074000808180688083E0913201F0913301808163
:100750008F7D808361E089E00E94E30061E08AE0B0
:100760000E94E30061E08BE00E94E30060E085E02E
:100770000E94E30044E050E068E171E080E291E033
:100780000E946B0142E050E06DE171E080E291E097
:100790000E946B0153EB452E50E0552E6FE9C62E9B
:1007A00060E0D62E7BE8A72E70E0B72EEDE7EE2EA8
:1007B000F12CFDE77F2E6624639440E0842E40E018
:1007C000942EF2018491F601C491F501D491DD23B8
:1007D00019F181110E948C00ED2FF0E0EE0FFF1F48
:1007E000E859FF4FA591B4918C91C823A9F060926C
:1007F000BD012091BE013091BF012115310551F598
:100800000E94780281149104E1F20E94D5018823AC
:10081000C1F20E940000D1CF8091BD01882349F32D
:10082000C091BE01D091BF011092BD016AE070E09D
:1008300080E090E00E9439012196C730D1052CF468
:10084000D093BF01C093BE01D4CF1092BF011092CC
:10085000BE01CFCF2130310519F40E948402D2CFDE
:10086000C90102978330910510F5880F991FFC018B
:10087000EE5EFE4FC081D181C930D10561F460E0E8
:100880008AE00E94B500CB30D10561F461E08C2F85
:100890000E94B500B7CF60E089E00E94B500CA3081
:1008A000D10569F760E08BE00E94B500EFCF2530FD
:1008B000310589F40E94840264E670E080E090E0F3
:1008C0000E9439010E94780264E670E080E090E0C6
:1008D0000E94390197CF2630310509F093CF02E10C
:1008E00011E0F801C191D1918F01CF3FDC0749F1AF
:1008F00061E08C2F0E94E300FE01FF27E255FF4FCD
:10090000E491E33041F148F4E130B9F0E230F1F044
:1009100060E08C2F0E94B50014C0E73031F1E83060
:1009200061F1E430A9F780918000806280938000BB
:10093000F0928B00E0928A0004C084B5806884BD88
:1009400077BC81E00831180761F65CCF84B580621E
:1009500084BD78BCF6CF8091800080688093800051
:10096000F0928900E0928800ECCF8091B00080681E
:100970008093B0007092B300E4CF8091B0008062A9
:100980008093B0007092B400DCCFE0E2F1E013821B
:10099000128288EE93E0A0E0B0E084839583A68382
:1009A000B78384E091E09183808385EC90E0958724
:1009B000848784EC90E09787868780EC90E0918B29
:1009C000808B81EC90E0938B828B82EC90E0958B16
:1009D000848B86EC90E0978B868B118E128E138E13
:1009E000148E0895EE0FFF1F0590F491E02D0994E9
:0409F000F894FFCFA9
:1009F400000000000B026B0198015802C901A70115
:100A0400BB0109000A000B00446F6E65000D0A006B
:00000001FF
